:0B0346003F065B4F666D7D077F6F0078
:0E033700090C000A0A0A0A0A0A0A0A01190039
:10026500E4F5291202F6120003EF64017023052953
:10027500532903E5297002F51AE529B40103751A16
:1002850032E529B40203751A4BE529B40303751A3F
:0D02950064E529FD7C007F0112035180C942
:05000300E4AF19F5193E
:0100080022D5
:10030D00E4FF20B1010F20B0027F0220B2027F0373
:05031D0020B3027F0483
:0103220022B8
:1002A20085080912030D8F08E509B40107E50870F6
:1002B20003751901E509B40207E50870037519020F
:1002C200E509B40307E5087003751903E509B404E9
:0802D20007E50870037519042B
:0102DA002201
:09035100AE05740C2FF8A606227B
:06021E008F1B8C1C8D1DDE
:10022400781E7C007D007BFF7A0379467E007F0B7D
:100234001200DEE4F580C37408951BF51B1392A22B
:10024400E51BC313F51B1392A3E51BC313F51B1383
:1002540092A4E51BC313F51B741E251DF8E6F58057
:010264002277
:1002DB00740C250AF8E6FD7C00AF0A12021E050A13
:0A02EB00E50AD394084003750A01E8
:0102F50022E6
:03000B00020104EB
:10010400C0E0C0F0C083C082C0D075D000C000C0C1
:1001140001C002C003C004C005C006C007758AA49C
:10012400758CFF050BE50B75F0648485F00BE50B0E
:10013400C3951A5004D2908002C2900516E5167039
:100144000205150518E51870020517C3E516940293
:10015400E515940040097515007516001202DBC3FD
:10016400E5189414E51794004009751700751800F4
:100174001202A2D007D006D005D004D003D002D0FA
:0E01840001D000D0D0D082D083D0F0D0E032B5
:1002F6005389F0438901758AA4758CFFC28DD28C0F
:07030600D2A9D2AFC2B92257
:10032300EF4E600F7D047CEFDCFEDDFCEF1F70F011
:030333001E80ED3C
:0103360022A4
:0300000002019268
:0C019200787FE4F6D8FD7581290201D9C0
:10000E00E709F608DFFA8046E709F208DFFA803ED4
:10001E0088828C83E709F0A3DFFA8032E309F608C1
:10002E00DFFA8078E309F208DFFA807088828C8329
:10003E00E309F0A3DFFA806489828A83E0A3F608DD
:10004E00DFFA805889828A83E0A3F208DFFA804CB7
:10005E0080D280FA80C680D4806980F2803380108E
:10006E0080A680EA809A80A880DA80E280CA8033F7
:10007E0089828A83ECFAE493A3C8C582C8CCC5836F
:10008E00CCF0A3C8C582C8CCC583CCDFE9DEE7803F
:10009E000D89828A83E493A3F608DFF9ECFAA9F0BE
:1000AE00EDFB2289828A83ECFAE0A3C8C582C8CC14
:1000BE00C583CCF0A3C8C582C8CCC583CCDFEADE2D
:1000CE00E880DB89828A83E493A3F208DFF980CC8F
:1000DE0088F0EF60010E4E60C388F0ED2402B40488
:1000EE000050B9F582EB2402B4040050AF2323452F
:0600FE00822390005E73F6
:10019E00020265E493A3F8E493A34003F68001F210
:1001AE0008DFF48029E493A3F85407240CC8C33362
:1001BE00C4540F4420C8834004F456800146F6DF31
:1001CE00E4800B0102040810204080900337E47E87
:1001DE00019360BCA3FF543F30E509541FFEE49326
:1001EE00A360010ECF54C025E060A840B8E493A3ED
:1001FE00FAE493A3F8E493A3C8C582C8CAC583CA18
:10020E00F0A3C8C582C8CAC583CADFE9DEE780BECF
:0103450000B7
:00000001FF
