:1005C8001A03011517003B3F065B4F666D7D077FD9
:0105D8006FB3
:0A05E80008258C8A88868482808EA4
:1001AF0078087C007D007BFF7A0579C87E007F0789
:1001BF001200D31206071205B47B007A00790812D9
:1001CF00032212044EE508FB7A007513027D017FAE
:1001DF000112056CE509FB7A007513017D047F019F
:1001EF0012056CE50AFB7A007513027D067F01127A
:1001FF00056CE50BFB7A007513027D097F01120573
:10020F006CE50CFB7A007513027D0C7F0112056CF7
:10021F00E50DFB7A007513027D0F7F0112056CE56A
:10022F000EFB7A007513027D017F0212056C80921E
:05060700C2B5C2B622DD
:060322008B0F8A10891107
:10032800E4FDFCAF2C1202CBE4F512AB0FAA10A926
:10033800118512827583001200F9FD75F00A847523
:10034800F010A4FFAEF0ED75F00A847C00EF25F004
:10035800FDEC3EFC74252512F8E6FF1202CB0512CF
:10036800E512C3940740C47D807C00AF2C0202CB09
:06044E008B0F8A108911DA
:10045400E4F51274252512F8E6FF120378EFC4546C
:100464000F75F00AA4FEEF540F2EAB0FAA10A911BA
:100474008512827583001201260512E512C39407C2
:0204840040D165
:010486002253
:0602CB008C138D14AB073B
:1002D100D2B5E4FD74017E00A805088005C333CEC4
:1002E10033CED8F9FFEBF582EF558224FF92B4D2D9
:1002F100B6C2B60DBD08DDE4FD74017E00A8050897
:100301008005C333CE33CED8F9FFE5135EFEE51485
:100311005F4E24FF92B4D2B6C2B60DBD08DBC2B5A2
:0103210022B9
:02037800AD07CF
:10037A00E4F9430501D2B5FB74017E00A8030880A5
:10038A0005C333CE33CED8F9FFEDF582EF5582247B
:10039A00FF92B4C2B6D2B60BBB08DDE4FBD2B6C23A
:1003AA00B630B40D7401A803088002C333D8FC42E6
:0B03BA00010BBB08E8C2B5C2B4AF01E4
:0103C5002215
:0603C6008F188C198D1A3E
:1003CC00781B7C007D007BFF7A0579CF7E007F0A4D
:1003DC001200D3C374089518F5181392A2E518C32C
:1003EC0013F5181392A3E518C313F5181392A4E58B
:1003FC0018C313F518741B251AF8E6F5807F017ED7
:07040C000012059FE4F580DA
:0104130022C6
:10059F00EF4E6010007D047CEFDCFEDDFCEF1F7082
:0405AF00EF1E80ECCF
:0105B3002225
:0605D900C2A58F80D2A72D
:0805DF007F027EEFDEFEDFFC6F
:0105E70022F1
:0A05F300C2A61205D9C2A70205DF57
:10054E00CFCDCFCECCCE12015A7C007D0A12015AED
:04055E00ED2430FF59
:0A056200D2A61205D9C2A70205DFD8
:10058900AE07BE0104ED148006BE0209ED243F4406
:0605990080FF1205F322B1
:1005B4007F381205F37F0C1205F37F061205F37FD3
:0405C400010205F338
:0A05FD00AC03120589AF0402056289
:06052B008B3E8A3F89406F
:10053100120589E4FDAB3EAA3FA9408D8275830077
:0C0541001200F9FF60061205620D80E94F
:01054D00228B
:0C04F8007F0AEA24FFFDE434FFFC7E00D4
:080504008E148F158C168D1763
:10050C007F017E00E4FBEBC39517E5166480F8745D
:0E051C008098500AAC14AD151201480B80E80F
:01052A0022AE
:04056C008A118B1253
:10057000120589AA13EAD39400400D1204F8AC11B5
:08058000AD1212054E1A80EDC8
:010588002250
:10041400120589C3EA64809480400B7F2B12056225
:100424008A328B33800E7F2D120562C3E49BF53331
:10043400E49AF532AA31EAD39400400D1204F8ACE0
:0904440032AD3312054E1A80EDB1
:01044D00228C
:040487008A368B37EF
:10048B00120589AA38EAD3940040297F101204FA86
:10049B00AC36AD37CFCDCFCECCCE12015AEF540FF9
:1004AB00FEC3940AEE5004243080022437FF120559
:0404BB00621A80D170
:0104BF00221A
:0404C0008A3B8B3CAC
:1004C400120589AA3DEAD394004028EA24FFFDE4FA
:1004D40034FFFC7F027E00120504AC3BAD3CCFCD63
:1004E400CFCECCCE12015AEF54012430FF12056254
:0304F4001A80D299
:0104F70022E2
:0300000002023FBA
:0C023F00787FE4F6D8FD7581400202864D
:10000300E709F608DFFA8046E709F208DFFA803EDF
:1000130088828C83E709F0A3DFFA8032E309F608CC
:10002300DFFA8078E309F208DFFA807088828C8334
:10003300E309F0A3DFFA806489828A83E0A3F608E8
:10004300DFFA805889828A83E0A3F208DFFA804CC2
:1000530080D280FA80C680D4806980F28033801099
:1000630080A680EA809A80A880DA80E280CA803302
:1000730089828A83ECFAE493A3C8C582C8CCC5837A
:10008300CCF0A3C8C582C8CCC583CCDFE9DEE7804A
:100093000D89828A83E493A3F608DFF9ECFAA9F0C9
:1000A300EDFB2289828A83ECFAE0A3C8C582C8CC1F
:1000B300C583CCF0A3C8C582C8CCC583CCDFEADE38
:1000C300E880DB89828A83E493A3F208DFF980CC9A
:1000D30088F0EF60010E4E60C388F0ED2402B40493
:1000E3000050B9F582EB2402B4040050AF2323453A
:0600F3008223900053730C
:1000F900BB010CE58229F582E5833AF583E02250BC
:1001090006E92582F8E622BBFE06E92582F8E22205
:0D011900E58229F582E5833AF583E493221F
:10012600F8BB010DE58229F582E5833AF583E8F00F
:10013600225006E92582C8F622BBFE05E92582C8BB
:02014600F222A3
:10014800EF8DF0A4A8F0CF8CF0A428CE8DF0A42ECB
:02015800FE2285
:10015A00BC000BBE0029EF8DF084FFADF022E4CC89
:10016A00F875F008EF2FFFEE33FEEC33FCEE9DEC52
:10017A00984005FCEE9DFE0FD5F0E9E4CEFD22ED98
:10018A00F8F5F0EE8420D21CFEADF075F008EF2FE2
:10019A00FFED33FD4007985006D5F0F222C398FDD3
:0501AA000FD5F0EA2270
:10024B000201AFE493A3F8E493A34003F68001F219
:10025B0008DFF48029E493A3F85407240CC8C333B4
:10026B00C4540F4420C8834004F456800146F6DF83
:10027B00E4800B01020408102040809005E8E47E26
:10028B00019360BCA3FF543F30E509541FFEE49378
:10029B00A360010ECF54C025E060A840B8E493A33F
:1002AB00FAE493A3F8E493A3C8C582C8CAC583CA6A
:1002BB00F0A3C8C582C8CAC583CADFE9DEE780BE22
:0105F2000008
:00000001FF
