:1001B5000A0B3F065B4F666D7D077F6F010A2801BD
:0501C500162601150FD4
:10009A00750A2875162675150F12019EE5157F013A
:1000AA00120154120186E51575F00A84E5F0FD7C0B
:1000BA00007F02120161120186E5167F03120154C4
:1000CA00120186E51675F00A84E5F0FD7C007F04CE
:1000DA00120161120186E50A75F00A8475F00A8434
:1000EA00E5F0FD7C007F05120161120186E50A75C3
:1000FA00F00A84E5F0FD7C007F0612016112018698
:03010A000200A64A
:03000B0002010DE2
:04010D00C0E0C0D0BE
:10011100758A18758CFC0509E50970020508C394F8
:10012100E8E50894034027750800750900050AE50C
:100131000A943C4019750A000516E516943C400ED8
:0E0141007516000515E5159418400375150098
:05014F00D0D0D0E03229
:040186007F017E0077
:10018A00EF4E600F7D047CEFDCFEDDFCEF1F70F0AC
:03019A001E80EDD7
:01019D00223F
:10019E005389F0438901758A18758CFCC28DD28CF7
:0701AE00D2A9D2AFC2B922B1
:0D01540075F00A8475F00A84E5F0FD7C006A
:10016100AB05C374089FFF1392A2EFC313FF139251
:10017100A3EFC3131392A4740B2BF8E6F5801201BD
:0501810086E4F5802278
:0300000002000EED
:0C000E00787FE4F6D8FD758116020055DD
:10001A0002009AE493A3F8E493A34003F68001F262
:10002A0008DFF48029E493A3F85407240CC8C333E7
:10003A00C4540F4420C8834004F456800146F6DFB6
:10004A00E4800B01020408102040809001B5E47E90
:10005A00019360BCA3FF543F30E509541FFEE493AB
:10006A00A360010ECF54C025E060A840B8E493A372
:10007A00FAE493A3F8E493A3C8C582C8CAC583CA9D
:10008A00F0A3C8C582C8CAC583CADFE9DEE780BE55
:0101CA000034
:00000001FF
