:0400D9000208000019
:1000C2005389F0438901758A66758CFCC28DD28C86
:0700D200D2A9D2AFC2B9228E
:050003001200C280FEA6
:03000B0002009A56
:10009A00C0E0C0D0758A66758CFC0509E509700256
:1000AA000508C394E8E50894034008750800750933
:0800BA0000B2A0D0D0D0E0326A
:0300000002000EED
:0C000E00787FE4F6D8FD758109020055EA
:10001A00020003E493A3F8E493A34003F68001F2F9
:10002A0008DFF48029E493A3F85407240CC8C333E7
:10003A00C4540F4420C8834004F456800146F6DFB6
:10004A00E4800B01020408102040809000D9E47E6D
:10005A00019360BCA3FF543F30E509541FFEE493AB
:10006A00A360010ECF54C025E060A840B8E493A372
:10007A00FAE493A3F8E493A3C8C582C8CAC583CA9D
:10008A00F0A3C8C582C8CAC583CADFE9DEE780BE55
:0100DD000022
:00000001FF
