:0603070068656C6C6F00DC
:100106001202C47BFF7A0379077D017F0112023C4C
:100116007F941200978F08EFFB7A00750D037D011F
:100126007F0212027D7FD41200978F08EFFB7A00C0
:10013600750D037D057F0212027D7FA41200978F45
:1001460008EFFB7A00750D037D097F0212027D7FA1
:08015600057E001202B080B822
:02009700AD07B3
:10009900E4F509F50AC2B5C2B6FB74807E00A8036F
:1000A900088006CEA2E713CE13D8F8FFEDF582EF4C
:1000B900558224FF92B4D2B6C2B60BBB08DCE4FB6E
:1000C900D2B6C2B630B715E47E08A803088006CEBA
:1000D900A2E713CE13D8F8420AEE42090BBB10E08F
:1000E900D2B5ED30E306E509FF7E0022E509C4F843
:0C00F90054F0C868FEE50AC4540F48FF2C
:0101050022D7
:1002B000EF4E600F7D047CEFDCFEDDFCEF1F70F085
:0302C0001E80EDB0
:0102C3002218
:0602D800C2A58F80D2A731
:0802DE007F027EEFDEFEDFFC73
:0102E60022F5
:0A02F300C2A61202D8C2A70202DE62
:10025F00CFCDCFCECCCE1200427C007D0A12004211
:04026F00ED2430FF4B
:0A027300D2A61202D8C2A70202DED2
:10029A00AE07BE0104ED148006BE0209ED243F44F8
:0602AA0080FF1202F322A6
:1002C4007F381202F37F0C1202F37F061202F37FCF
:0402D400010202F32E
:0A02FD00AC0312029AAF0402027370
:06023C008B098A0A890B00
:1002420012029AE4FDAB09AA0AA90B8D82758300FA
:0C025200120003FF60061202730D80E929
:01025E00227D
:0C0209007F0AEA24FFFDE434FFFC7E00C5
:080215008E0E8F0F8C108D116D
:10021D007F017E00E4FBEBC39511E5106480F8745B
:0E022D008098500AAC0EAD0F1200300B80E826
:01023B0022A0
:04027D008A0B8B0C51
:1002810012029AAA0DEAD39400400D120209AC0B96
:08029100AD0C12025F1A80EDB2
:010299002242
:10015E0012029AC3EA64809480400B7F2B120273C2
:10016E008A178B18800E7F2D120273C3E49BF5182D
:10017E00E49AF517AA16EAD39400400D120209ACC0
:09018E0017AD1812025F1A80ED92
:010197002245
:040198008A1B8B1C17
:10019C0012029AAA1DEAD3940040297F1012020B76
:1001AC00AC1BAD1CCFCDCFCECCCE120042EF540F3A
:1001BC00FEC3940AEE5004243080022437FF12024E
:0401CC00731A80D151
:0101D000220C
:0401D1008A208B21D4
:1001D50012029AAA22EAD394004028EA24FFFDE4F9
:1001E50034FFFC7F027E00120215AC20AD21CFCD7D
:1001F500CFCECCCE120042EF54012430FF12027351
:030205001A80D28A
:0102080022D3
:030000000202E712
:0C02E700787FE4F6D8FD75812202010644
:10000300BB010CE58229F582E5833AF583E02250B2
:1000130006E92582F8E622BBFE06E92582F8E222FC
:0D002300E58229F582E5833AF583E4932216
:10003000EF8DF0A4A8F0CF8CF0A428CE8DF0A42EE4
:02004000FE229E
:10004200BC000BBE0029EF8DF084FFADF022E4CCA2
:10005200F875F008EF2FFFEE33FEEC33FCEE9DEC6B
:10006200984005FCEE9DFE0FD5F0E9E4CEFD22EDB1
:10007200F8F5F0EE8420D21CFEADF075F008EF2FFB
:10008200FFED33FD4007985006D5F0F222C398FDEC
:050092000FD5F0EA2289
:00000001FF
