:10011700090B000A0A0A0A0A0A0A0A0B143F065BB5
:080127004F666D7D077F6F003C
:0500030012013080FE37
:09014700AE05740B2FF8A6062288
:1000DA00AB05E4F580C374089FFF1392A2EFC31324
:1000EA00FF1392A3EFC3131392A474142BF8E6F52B
:0200FA00802262
:1000FC00740B2508F8E6FD7C00AF081200DA050841
:0A010C00E508D394084003750801CC
:0101160022C6
:03000B0002009A56
:10009A00C0E0C0D075D000C000C003C004C005C015
:0100AA00074E
:1000AB00758A18758CFC050AE50A70020509C3945C
:1000BB0002E50994004009750900750A001200FC5D
:0F00CB00D007D005D004D003D000D0D0D0E03281
:100130005389F0438901758A18758CFCC28DD28C65
:07014000D2A9D2AFC2B9221F
:0300000002000EED
:0C000E00787FE4F6D8FD75811E020055D5
:10001A00020003E493A3F8E493A34003F68001F2F9
:10002A0008DFF48029E493A3F85407240CC8C333E7
:10003A00C4540F4420C8834004F456800146F6DFB6
:10004A00E4800B0102040810204080900117E47E2E
:10005A00019360BCA3FF543F30E509541FFEE493AB
:10006A00A360010ECF54C025E060A840B8E493A372
:10007A00FAE493A3F8E493A3C8C582C8CAC583CA9D
:10008A00F0A3C8C582C8CAC583CADFE9DEE780BE55
:01012F0000CF
:00000001FF
