:0A0295003F065B4F666D7D077F6F2B
:0700030001180002190000C2
:10023D0012025412029FEF6002F508E508FD7C00E2
:07024D007F0112019080EC1B
:05029F00E4AF18F518A2
:0102A4002237
:10026B00E4FF20B1010F20B0027F0220B2027F0316
:05027B0020B3027F0426
:01028000225B
:1001D40085161712026B8F16E517B40107E5167022
:1001E40003751801E517B40207E5167003751802C4
:1001F400E517B40307E5167003751803E517B4048F
:0802040007E5167003751804EC
:01020C0022CF
:03000B0002020DE1
:10020D00C0E0C0D075D000C007758A66758CFC053E
:10021D001AE51A70020519C39414E51994004009E2
:10022D00751900751A001201D4D007D0D0D0E03264
:100254005389F0438901758A66758CFCC28DD28CF2
:07026400D2A9D2AFC2B922FA
:060190008F098C0A8D0BA3
:10019600780C7C007D007BFF7A0279957E007F0AD1
:1001A6001200DEC374089509F5091392A2E509C386
:1001B60013F5091392A3E509C313F5091392A4E5F0
:0D01C60009C313F509740C250BF8E6F5804C
:0101D3002209
:10028100EF4E600F7D047CEFDCFEDDFCEF1F70F0B4
:030291001E80EDDF
:010294002247
:03000000020104F6
:0C010400787FE4F6D8FD75811A02014BEB
:10000E00E709F608DFFA8046E709F208DFFA803ED4
:10001E0088828C83E709F0A3DFFA8032E309F608C1
:10002E00DFFA8078E309F208DFFA807088828C8329
:10003E00E309F0A3DFFA806489828A83E0A3F608DD
:10004E00DFFA805889828A83E0A3F208DFFA804CB7
:10005E0080D280FA80C680D4806980F2803380108E
:10006E0080A680EA809A80A880DA80E280CA8033F7
:10007E0089828A83ECFAE493A3C8C582C8CCC5836F
:10008E00CCF0A3C8C582C8CCC583CCDFE9DEE7803F
:10009E000D89828A83E493A3F608DFF9ECFAA9F0BE
:1000AE00EDFB2289828A83ECFAE0A3C8C582C8CC14
:1000BE00C583CCF0A3C8C582C8CCC583CCDFEADE2D
:1000CE00E880DB89828A83E493A3F208DFF980CC8F
:1000DE0088F0EF60010E4E60C388F0ED2402B40488
:1000EE000050B9F582EB2402B4040050AF2323452F
:0600FE00822390005E73F6
:1001100002023DE493A3F8E493A34003F68001F2C6
:1001200008DFF48029E493A3F85407240CC8C333F0
:10013000C4540F4420C8834004F456800146F6DFBF
:10014000E4800B0102040810204080900003E47E4C
:10015000019360BCA3FF543F30E509541FFEE493B4
:10016000A360010ECF54C025E060A840B8E493A37B
:10017000FAE493A3F8E493A3C8C582C8CAC583CAA6
:10018000F0A3C8C582C8CAC583CADFE9DEE780BE5E
:01000A0000F5
:00000001FF
