:0A01D9003F065B4F666D7D077F6FE8
:10019B0012013D8F15E51560F77F32120179E515D8
:0A01AB00FD7C007F011200F980E6E0
:020179008F08ED
:10017B00E4F509F50AC3E50A9508E5099400500F63
:0F018B00B2A51201B5050AE50A70EA050980E67A
:01019A002242
:10013D0020B10C1201B530B1FD1201B57F012220A5
:10014D00B00C1201B530B0FD1201B57F022220B204
:10015D000C1201B530B2FD1201B57F032220B30B95
:0C016D001201B530B3FD1201B57F042271
:0600F9008F088C098D0A3E
:1000FF00780B7C007D007BFF7A0179D97E007F0A27
:10010F001200D3C374089508F5081392A2E508C32B
:10011F0013F5081392A3E508C313F5081392A4E58A
:0D012F0008C313F508740B250AF8E6F580E7
:01013C0022A0
:0401B5007F017E0048
:1001B900EF4E600F7D047CEFDCFEDDFCEF1F70F07D
:0301C9001E80EDA8
:0101CC002210
:030000000201CD2D
:0C01CD00787FE4F6D8FD75811702019BD5
:10000300E709F608DFFA8046E709F208DFFA803EDF
:1000130088828C83E709F0A3DFFA8032E309F608CC
:10002300DFFA8078E309F208DFFA807088828C8334
:10003300E309F0A3DFFA806489828A83E0A3F608E8
:10004300DFFA805889828A83E0A3F208DFFA804CC2
:1000530080D280FA80C680D4806980F28033801099
:1000630080A680EA809A80A880DA80E280CA803302
:1000730089828A83ECFAE493A3C8C582C8CCC5837A
:10008300CCF0A3C8C582C8CCC583CCDFE9DEE7804A
:100093000D89828A83E493A3F608DFF9ECFAA9F0C9
:1000A300EDFB2289828A83ECFAE0A3C8C582C8CC1F
:1000B300C583CCF0A3C8C582C8CCC583CCDFEADE38
:1000C300E880DB89828A83E493A3F208DFF980CC9A
:1000D30088F0EF60010E4E60C388F0ED2402B40493
:1000E3000050B9F582EB2402B4040050AF2323453A
:0600F3008223900053730C
:00000001FF
