:0607500068656C6C6F008F
:100462001206EE7BFF7A0779507D017F0112061298
:100472001207231205E68F0B8E0A8D098C08E4FF02
:10048200FEFDFCAB0BAA0AA909A8081201A9501E7D
:100492007B2D7D017F02120746AF0BAE0AAD09AC80
:1004A200081202228F0B8E0A8D098C0880097B2B81
:1004B2007D017F02120746AF0BAE0AAD09AC0812EE
:1004C2000271AB07AA067510037D027F0212067045
:1004D2007B2E7D057F021207467F007E407D1C7CBD
:1004E20046AB0BAA0AA909A808120003120271E47A
:1004F2007B107A27F9F81203C27510047D067F0279
:06050200120670020472F3
:0D07230012068D7FCC1206A77F440206A7A8
:1005E60012068D7FCC1206A77FBE1206A7120653EF
:1005F6008F0C120653EFFEE50CFFFDAC06EC120263
:0B06060038E4FBFA7980784112010C07
:0106110022C6
:10068D00D2B7C2B77FE3DFFED2B77F1DDFFEA2B7C1
:09069D00E433FE7FE3DFFEAF064B
:0106A6002231
:10070200C2B77E04DEFEEF24FF92B77E16DEFED273
:01071200B72F
:0107130022C3
:1006C000C2B77F02DFFED2B77F02DFFEA2B7E433FC
:0706D000FE7F16DFFEAF06FE
:0106D7002200
:0206A700AD079D
:1006A900E4FC7401A804088002C333D8FC5DFF127E
:0606B90007020CBC08EC76
:0106BF002218
:10065300E4FDFC1206C0EF600D7401A804088002DB
:0C066300C333D8FC42050CBC08E9AF050D
:01066F002268
:06071400C2A58F80D2A7F0
:08071A007F027EEFDEFEDFFC32
:0107220022B4
:0A073C00C2A6120714C2A702071A92
:10063500CFCDCFCECCCE1203317C007D0A12033153
:04064500ED2430FF71
:0A064900D2A6120714C2A702071A76
:1006D800AE07BE0104ED148006BE0209ED243F44B6
:0606E80080FF12073C2216
:1006EE007F3812073C7F0C12073C7F0612073C7FB7
:0406FE000102073CB2
:0A074600AC031206D8AF0402064906
:060612008B0C8A0D890E1D
:100618001206D8E4FDAB0CAA0DA90E8D82758300D5
:0C0628001202F2FF60061206490D80E984
:0106340022A3
:0C05B3007F0AEA24FFFDE434FFFC7E0018
:0805BF008E118F128C138D14B4
:1005C7007F017E00E4FBEBC39514E5136480F874A8
:0E05D7008098500AAC11AD1212031F0B80E881
:0105E50022F3
:040670008A0E8B0F54
:100674001206D8AA10EAD39400400D1205B3AC0EAA
:08068400AD0F1206351A80EDDE
:01068C00224B
:100508001206D8C3EA64809480400B7F2B120649F8
:100518008A1A8B1B800E7F2D120649C3E49BF51B9C
:10052800E49AF51AAA19EAD39400400D1205B3AC5F
:090538001AAD1B1206351A80ED04
:010541002297
:040542008A1E8B1F63
:100546001206D8AA20EAD3940040297F101205B5D6
:10055600AC1EAD1FCFCDCFCECCCE120331EF540F94
:10056600FEC3940AEE5004243080022437FF12069C
:04057600491A80D1CD
:01057A00225E
:04057B008A238B2420
:10057F001206D8AA25EAD394004028EA24FFFDE406
:10058F0034FFFC7F027E001205BFAC23AD24CFCD1C
:10059F00CFCECCCE120331EF54012430FF120649D7
:0305AF001A80D2DD
:0105B2002226
:10000300EC4D6011E8497017ED33EC3304600DE4F7
:10001300FCFFFEFD22E933E8330470F80202DD122F
:1000230002A858046009E4CC248150062850090230
:1000330002E72840030202E4C0E0EB4A7044B980BF
:1000430006D0E0FB0202D3EF4E701CBD8008EBFF2D
:10005300EAFEE9FD80EBE98DF0A4FEE5F00200EC99
:10006300E9CDF9EAFEEBFFEF89F0A4FCE5F0CE89D8
:10007300F0A42EFFE435F0CD89F0A42DFEE435F095
:100083008067EF4E7005BD80D780C3EF8BF0A4ACC3
:10009300F0EE8BF0A42CFCE435F0F8EF8AF0A42CFE
:1000A300E5F038FCE433CB8DF0A42CFCE5F03BF811
:1000B300EE8AF0A42CFCE5F038F8E433CF89F0A401
:1000C3002CFCE5F038CF3400CE89F0A42FFFE5F007
:1000D3003EFEE433C98DF0A42EFEE5F039CD8AF05F
:1000E300A42FFFE5F03EFEE43DFD33D0E0FB5007D7
:1000F3000BBB000F0202E7EC2CFCEF33FFEE33FEE9
:06010300ED33FD0202BF16
:100109000202E7EC5D046005E8590470030202DDB0
:100119001202A8580460F6EC4860F2EC7004FDFE87
:10012900FF22C860DB2481C85009C39860025006C9
:100139000202E49850CAF582E9294B4A7005AB825C
:100149000202D375F0007C1A7880C3EF9BEE9AED1A
:1001590099400DC3EF9BFFEE9AFEED99FDE842F041
:10016900DC23ACF0D0E0FFD0E0FED0E0FDAB822094
:10017900E7101BEB60BAEC2CFCEF33FFEE33FEED1E
:1001890033FD0202BFE803F830E705C0F075F0005F
:10019900EF2FFFEE33FEED33FD40B830E7C280AA02
:1001A90074F8CC6480CCC86480C8F58204604FC3FD
:1001B900EB9FF5F0EA9E42F0E99D42F0E89C45F09C
:1001C900603C501DE5825FFFE582D313CB5BCBF426
:1001D9002B5582FB50280ABA002409B9002008804F
:1001E9001DE5825BFBE582D313CF5FCFF4C3132FE9
:1001F9005582FF50090EBE00050DBD00010CC3EB71
:100209009FF5F0EA9E42F0E99D42F0E89C45F060D6
:0902190007CC4820E701B3EC22F8
:10022200ED33EC33600A047003BD8004ECB2E7FCEA
:0102320022A9
:1002330075F020800E75F010800575F0087D007E46
:10024300007F003392D530D503120454EC334010B1
:10025300EF33FFEE33FEED33FDEC33FCD5F0ED224F
:0E026300E5F0247EA2D513CC92E7CDCEFF228B
:10027100EDD2E7CD33EC3392D524814006E4FFFE85
:10028100FDFC22FCE4CFCECDCC24E0501174FF80E4
:10029100EDC3CC13CCCD13CDCE13CECF13CF047081
:0702A100F030D5DE02045429
:1002A800E9D2E7C933E833F892D5EDD2E7CD33EC9C
:0702B80033FC5002B2D52215
:1002BF00EC30E7100FBF000C0EBE00080DBD0004A0
:1002CF000BEB6014A2D5EB13FCED92E7FD2274FF4C
:1002DF00FCFDFEFF22E480F8A2D574FF13FC7D80A5
:0302EF00E480EFB9
:03000000020730C4
:0C073000787FE4F6D8FD75812502046294
:1002F200BB010CE58229F582E5833AF583E02250C1
:1003020006E92582F8E622BBFE06E92582F8E2220A
:0D031200E58229F582E5833AF583E4932224
:10031F00EF8DF0A4A8F0CF8CF0A428CE8DF0A42EF2
:02032F00FE22AC
:10033100BC000BBE0029EF8DF084FFADF022E4CCB0
:10034100F875F008EF2FFFEE33FEEC33FCEE9DEC79
:10035100984005FCEE9DFE0FD5F0E9E4CEFD22EDBF
:10036100F8F5F0EE8420D21CFEADF075F008EF2F09
:10037100FFED33FD4007985006D5F0F222C398FDFA
:050381000FD5F0EA2297
:1003860075F008758200EF2FFFEE33FECD33CDCC2E
:1003960033CCC58233C5829BED9AEC99E5829840B1
:1003A6000CF582EE9BFEED9AFDEC99FC0FD5F0D68E
:1003B600E4CEFBE4CDFAE4CCF9A88222B800C1B9B8
:1003C6000059BA002DEC8BF084CFCECDFCE5F0CBF6
:1003D600F97818EF2FFFEE33FEED33FDEC33FCEB2F
:1003E60033FB10D703994004EB99FB0FD8E5E4F9EA
:1003F600FA227818EF2FFFEE33FEED33FDEC33FCD7
:10040600C933C910D7059BE99A4007EC9BFCE99ACA
:10041600F90FD8E0E4C9FAE4CCFB2275F010EF2F0F
:10042600FFEE33FEED33FDCC33CCC833C810D7070F
:100436009BEC9AE899400AED9BFDEC9AFCE899F84A
:0E0446000FD5F0DAE4CDFBE4CCFAE4C8F922DD
:0E045400C3E49FFFE49EFEE49DFDE49CFC22B9
:00000001FF
