:1001CE001202C07D427C007F011201F67F147E0078
:1001DE001202AC7F01120175EFFB7A00750C037DE4
:0801EE00017F0212027980FE7C
:1001F6008F088C098D0A1203197FA01201A512021D
:10020600E3AF081201A51202E3AF0A1201A512021A
:04021600E3020322DA
:020175008F08F1
:100177001203197FA01201A51202E3AF081201A50D
:100187001202E31203197FA11201A51202E3120260
:0D0197003D8F097F011202FB120322AF0908
:0101A4002238
:09031900D2A0D2A1C2A0C2A1220F
:07032200C2A0D2A1D2A0226B
:0201A500AD07A4
:1001A700E4FB74807E00A803088006CEA2E713CE86
:1001B70013D8F8FFEDF582EF558224FF92A0D2A164
:0601C700C2A10BBB08DC25
:0101CD00220F
:10023D00E4FFD2A0FED2A130A00D7480A8060880E4
:0D024D0002C313D8FC4207C2A10EBE08E890
:01025A002281
:0A02FB00EF24FF92A0C2A1D2A122BD
:0B02E300D2A0D2A1A2A0E433FFC2A170
:0102EE0022ED
:1002AC00EF4E600F7D047CEFDCFEDDFCEF1F70F089
:0302BC001E80EDB4
:0102BF00221C
:0602D400C2A58F80D2A735
:0802DA007F027EEFDEFEDFFC77
:0102E20022F9
:0A030500C2A61202D4C2A70202DA57
:10025B00CFCDCFCECCCE1200427C007D0A12004215
:04026B00ED2430FF4F
:0A026F00D2A61202D4C2A70202DADE
:10029600AE07BE0104ED148006BE0209ED243F44FC
:0602A60080FF1203052297
:1002C0007F381203057F0C1203057F061203057F9A
:0402D000010203051F
:0A030F00AC03120296AF0402026F65
:06021A008B228A238924D7
:10022000120296E4FDAB22AA23A9248D82758300D5
:0C023000120003FF600612026F0D80E94F
:01023C00229F
:0C0142007F0AEA24FFFDE434FFFC7E008D
:08014E008E0D8F0E8C0F8D1039
:100156007F017E00E4FBEBC39510E50F6480F87425
:0E0166008098500AAC0DAD0E1200300B80E8F0
:010174002268
:040279008A0A8B0B57
:10027D00120296AA0CEAD39400400D120142AC0A68
:08028D00AD0B12025B1A80EDBB
:010295002246
:10009700120296C3EA64809480400B7F2B12026F92
:1000A7008A168B17800E7F2D12026FC3E49BF517FC
:1000B700E49AF516AA15EAD39400400D120142AC52
:0900C70016AD1712025B1A80ED60
:0100D000220D
:0400D1008A1A8B1BE1
:1000D500120296AA1CEAD3940040297F101201440B
:1000E500AC1AAD1BCFCDCFCECCCE120042EF540F04
:1000F500FEC3940AEE5004243080022437FF120216
:040105006F1A80D11C
:0101090022D3
:04010A008A1F8B209D
:10010E00120296AA21EAD394004028EA24FFFDE4C5
:10011E0034FFFC7F027E0012014EAC1FAD20CFCD0E
:10012E00CFCECCCE120042EF54012430FF12026F1C
:03013E001A80D252
:01014100229B
:030000000202EF0A
:0C02EF00787FE4F6D8FD7581240201CE72
:10000300BB010CE58229F582E5833AF583E02250B2
:1000130006E92582F8E622BBFE06E92582F8E222FC
:0D002300E58229F582E5833AF583E4932216
:10003000EF8DF0A4A8F0CF8CF0A428CE8DF0A42EE4
:02004000FE229E
:10004200BC000BBE0029EF8DF084FFADF022E4CCA2
:10005200F875F008EF2FFFEE33FEEC33FCEE9DEC6B
:10006200984005FCEE9DFE0FD5F0E9E4CEFD22EDB1
:10007200F8F5F0EE8420D21CFEADF075F008EF2FFB
:10008200FFED33FD4007985006D5F0F222C398FDEC
:050092000FD5F0EA2289
:00000001FF
