:06058F001A011517003BE4
:0905710007188A88868482808EB6
:10023B0078087C007D007BFF7A05798F7E007F0636
:10024B001200D312059512054E1203E8E508FB7A4E
:10025B00007513027D017F01120506E509FB7A008B
:10026B007513027D047F01120506E50AFB7A007502
:10027B0013027D077F01120506E50BFB7A00751350
:10028B00027D0A7F01120506E50CFB7A007513024D
:10029B007D0D7F01120506E50DFB7A007513027DBE
:0802AB00017F0212050680A18B
:05059500C2B5C2B62250
:06030A008B308A318932BC
:10031000E4FDFCAF1E1202B3E4F533AB30AA31A901
:10032000328533827583001200F9FD75F00A8475F9
:10033000F010A4FFAEF0ED75F00A847C00EF25F01C
:10034000FDEC3EFC74182533F8E6FF1202B30533CA
:10035000E533C3940640C47D807C00AF1E0202B327
:0603E8008B0F8A10891141
:1003EE00E4F51274182512F8E6FF120360EFC454F8
:1003FE000F75F00AA4FEEF540F2EAB0FAA10A91121
:10040E008512827583001201260512E512C3940629
:02041E0040D1CB
:0104200022B9
:0602B3008C378D38AB070B
:1002B900D2B5E4FD74017E00A805088005C333CEDC
:1002C90033CED8F9FFEBF582EF558224FF92B4D2F1
:1002D900B6C2B60DBD08DDE4FD74017E00A80508AF
:1002E9008005C333CE33CED8F9FFE5375EFEE53856
:1002F9005F4E24FF92B4D2B6C2B60DBD08DBC2B5BB
:0103090022D1
:02036000AD07E7
:10036200E4F9430501D2B5FB74017E00A8030880BD
:1003720005C333CE33CED8F9FFEDF582EF55822493
:10038200FF92B4C2B6D2B60BBB08DDE4FBD2B6C252
:10039200B630B40D7401A803088002C333D8FC42FE
:0B03A200010BBB08E8C2B5C2B4AF01FC
:0103AD00222D
:10053900EF4E6010007D047CEFDCFEDDFCEF1F70E8
:04054900EF1E80EC35
:01054D00228B
:06056200C2A58F80D2A7A4
:080568007F027EEFDEFEDFFCE6
:010570002268
:0A057B00C2A6120562C2A7020568BD
:1004E800CFCDCFCECCCE12015A7C007D0A12015A54
:0404F800ED2430FFC0
:0A04FC00D2A6120562C2A70205682D
:10052300AE07BE0104ED148006BE0209ED243F446C
:0605330080FF12057B228F
:10054E007F3812057B7F0C12057B7F0612057B7FA1
:04055E000102057B16
:0A058500AC03120523AF040204FCCE
:0604C5008B348A358936F4
:1004CB00120523E4FDAB34AA35A9368D8275830062
:0C04DB001200F9FF60061204FC0D80E91D
:0104E70022F2
:0C0492007F0AEA24FFFDE434FFFC7E003A
:08049E008E148F158C168D17CA
:1004A6007F017E00E4FBEBC39517E5166480F874C4
:0E04B6008098500AAC14AD151201480B80E876
:0104C4002215
:040506008A118B12B9
:10050A00120523AA13EAD39400400D120492AC11E7
:08051A00AD121204E81A80ED95
:0105220022B6
:1003AE00120523C3EA64809480400B7F2B1204FC59
:1003BE008A248B25800E7F2D1204FCC3E49BF52529
:1003CE00E49AF524AA23EAD39400400D120492ACC9
:0903DE0024AD251204E81A80ED9B
:0103E70022F3
:040421008A288B2971
:10042500120523AA2AEAD3940040297F10120494C6
:10043500AC28AD29CFCDCFCECCCE12015AEF540F7B
:10044500FEC3940AEE5004243080022437FF1204C0
:04045500FC1A80D13C
:010459002280
:04045A008A2D8B2E2E
:10045E00120523AA2FEAD394004028EA24FFFDE4D4
:10046E0034FFFC7F027E0012049EAC2DAD2ECFCD4C
:10047E00CFCECCCE12015AEF54012430FF1204FC21
:03048E001A80D2FF
:010491002248
:030000000201AF4B
:0C01AF00787FE4F6D8FD7581380201F677
:10000300E709F608DFFA8046E709F208DFFA803EDF
:1000130088828C83E709F0A3DFFA8032E309F608CC
:10002300DFFA8078E309F208DFFA807088828C8334
:10003300E309F0A3DFFA806489828A83E0A3F608E8
:10004300DFFA805889828A83E0A3F208DFFA804CC2
:1000530080D280FA80C680D4806980F28033801099
:1000630080A680EA809A80A880DA80E280CA803302
:1000730089828A83ECFAE493A3C8C582C8CCC5837A
:10008300CCF0A3C8C582C8CCC583CCDFE9DEE7804A
:100093000D89828A83E493A3F608DFF9ECFAA9F0C9
:1000A300EDFB2289828A83ECFAE0A3C8C582C8CC1F
:1000B300C583CCF0A3C8C582C8CCC583CCDFEADE38
:1000C300E880DB89828A83E493A3F208DFF980CC9A
:1000D30088F0EF60010E4E60C388F0ED2402B40493
:1000E3000050B9F582EB2402B4040050AF2323453A
:0600F3008223900053730C
:1000F900BB010CE58229F582E5833AF583E02250BC
:1001090006E92582F8E622BBFE06E92582F8E22205
:0D011900E58229F582E5833AF583E493221F
:10012600F8BB010DE58229F582E5833AF583E8F00F
:10013600225006E92582C8F622BBFE05E92582C8BB
:02014600F222A3
:10014800EF8DF0A4A8F0CF8CF0A428CE8DF0A42ECB
:02015800FE2285
:10015A00BC000BBE0029EF8DF084FFADF022E4CC89
:10016A00F875F008EF2FFFEE33FEEC33FCEE9DEC52
:10017A00984005FCEE9DFE0FD5F0E9E4CEFD22ED98
:10018A00F8F5F0EE8420D21CFEADF075F008EF2FE2
:10019A00FFED33FD4007985006D5F0F222C398FDD3
:0501AA000FD5F0EA2270
:1001BB0002023BE493A3F8E493A34003F68001F21D
:1001CB0008DFF48029E493A3F85407240CC8C33345
:1001DB00C4540F4420C8834004F456800146F6DF14
:1001EB00E4800B0102040810204080900571E47E2E
:1001FB00019360BCA3FF543F30E509541FFEE49309
:10020B00A360010ECF54C025E060A840B8E493A3CF
:10021B00FAE493A3F8E493A3C8C582C8CAC583CAFA
:10022B00F0A3C8C582C8CAC583CADFE9DEE780BEB2
:01057A000080
:00000001FF
